{
  "_format": "hh-sol-artifact-1",
  "contractName": "NHLNFT",
  "sourceName": "contracts/NHLNFT.sol",
  "abi": [
    {
      "inputs": [],
      "stateMutability": "nonpayable",
      "type": "constructor"
    },
    {
      "anonymous": false,
      "inputs": [
        {
          "indexed": true,
          "internalType": "address",
          "name": "owner",
          "type": "address"
        },
        {
          "indexed": true,
          "internalType": "address",
          "name": "approved",
          "type": "address"
        },
        {
          "indexed": true,
          "internalType": "uint256",
          "name": "tokenId",
          "type": "uint256"
        }
      ],
      "name": "Approval",
      "type": "event"
    },
    {
      "anonymous": false,
      "inputs": [
        {
          "indexed": true,
          "internalType": "address",
          "name": "owner",
          "type": "address"
        },
        {
          "indexed": true,
          "internalType": "address",
          "name": "operator",
          "type": "address"
        },
        {
          "indexed": false,
          "internalType": "bool",
          "name": "approved",
          "type": "bool"
        }
      ],
      "name": "ApprovalForAll",
      "type": "event"
    },
    {
      "anonymous": false,
      "inputs": [
        {
          "indexed": false,
          "internalType": "address",
          "name": "_minter",
          "type": "address"
        },
        {
          "indexed": false,
          "internalType": "uint256",
          "name": "_tokenId",
          "type": "uint256"
        }
      ],
      "name": "NewToken",
      "type": "event"
    },
    {
      "anonymous": false,
      "inputs": [
        {
          "indexed": true,
          "internalType": "address",
          "name": "previousOwner",
          "type": "address"
        },
        {
          "indexed": true,
          "internalType": "address",
          "name": "newOwner",
          "type": "address"
        }
      ],
      "name": "OwnershipTransferred",
      "type": "event"
    },
    {
      "anonymous": false,
      "inputs": [
        {
          "indexed": true,
          "internalType": "address",
          "name": "from",
          "type": "address"
        },
        {
          "indexed": true,
          "internalType": "address",
          "name": "to",
          "type": "address"
        },
        {
          "indexed": true,
          "internalType": "uint256",
          "name": "tokenId",
          "type": "uint256"
        }
      ],
      "name": "Transfer",
      "type": "event"
    },
    {
      "inputs": [
        {
          "internalType": "address",
          "name": "to",
          "type": "address"
        },
        {
          "internalType": "uint256",
          "name": "tokenId",
          "type": "uint256"
        }
      ],
      "name": "approve",
      "outputs": [],
      "stateMutability": "nonpayable",
      "type": "function"
    },
    {
      "inputs": [
        {
          "internalType": "address",
          "name": "owner",
          "type": "address"
        }
      ],
      "name": "balanceOf",
      "outputs": [
        {
          "internalType": "uint256",
          "name": "",
          "type": "uint256"
        }
      ],
      "stateMutability": "view",
      "type": "function"
    },
    {
      "inputs": [],
      "name": "beneficiary",
      "outputs": [
        {
          "internalType": "address",
          "name": "",
          "type": "address"
        }
      ],
      "stateMutability": "view",
      "type": "function"
    },
    {
      "inputs": [
        {
          "internalType": "uint256",
          "name": "tokenId",
          "type": "uint256"
        }
      ],
      "name": "getApproved",
      "outputs": [
        {
          "internalType": "address",
          "name": "",
          "type": "address"
        }
      ],
      "stateMutability": "view",
      "type": "function"
    },
    {
      "inputs": [
        {
          "internalType": "address",
          "name": "owner",
          "type": "address"
        },
        {
          "internalType": "address",
          "name": "operator",
          "type": "address"
        }
      ],
      "name": "isApprovedForAll",
      "outputs": [
        {
          "internalType": "bool",
          "name": "",
          "type": "bool"
        }
      ],
      "stateMutability": "view",
      "type": "function"
    },
    {
      "inputs": [
        {
          "internalType": "string",
          "name": "selection",
          "type": "string"
        },
        {
          "internalType": "string",
          "name": "_colorOne",
          "type": "string"
        },
        {
          "internalType": "string",
          "name": "_colorTwo",
          "type": "string"
        }
      ],
      "name": "mint",
      "outputs": [
        {
          "internalType": "uint256",
          "name": "",
          "type": "uint256"
        }
      ],
      "stateMutability": "payable",
      "type": "function"
    },
    {
      "inputs": [],
      "name": "name",
      "outputs": [
        {
          "internalType": "string",
          "name": "",
          "type": "string"
        }
      ],
      "stateMutability": "view",
      "type": "function"
    },
    {
      "inputs": [],
      "name": "owner",
      "outputs": [
        {
          "internalType": "address",
          "name": "",
          "type": "address"
        }
      ],
      "stateMutability": "view",
      "type": "function"
    },
    {
      "inputs": [
        {
          "internalType": "uint256",
          "name": "tokenId",
          "type": "uint256"
        }
      ],
      "name": "ownerOf",
      "outputs": [
        {
          "internalType": "address",
          "name": "",
          "type": "address"
        }
      ],
      "stateMutability": "view",
      "type": "function"
    },
    {
      "inputs": [
        {
          "internalType": "uint256",
          "name": "",
          "type": "uint256"
        }
      ],
      "name": "predictions",
      "outputs": [
        {
          "internalType": "uint256",
          "name": "tokenId",
          "type": "uint256"
        },
        {
          "internalType": "address",
          "name": "owner",
          "type": "address"
        },
        {
          "internalType": "string",
          "name": "selection",
          "type": "string"
        },
        {
          "internalType": "uint256",
          "name": "timestamp",
          "type": "uint256"
        },
        {
          "internalType": "string",
          "name": "_colorOne",
          "type": "string"
        },
        {
          "internalType": "string",
          "name": "_colorTwo",
          "type": "string"
        }
      ],
      "stateMutability": "view",
      "type": "function"
    },
    {
      "inputs": [],
      "name": "renounceOwnership",
      "outputs": [],
      "stateMutability": "nonpayable",
      "type": "function"
    },
    {
      "inputs": [
        {
          "internalType": "address",
          "name": "from",
          "type": "address"
        },
        {
          "internalType": "address",
          "name": "to",
          "type": "address"
        },
        {
          "internalType": "uint256",
          "name": "tokenId",
          "type": "uint256"
        }
      ],
      "name": "safeTransferFrom",
      "outputs": [],
      "stateMutability": "nonpayable",
      "type": "function"
    },
    {
      "inputs": [
        {
          "internalType": "address",
          "name": "from",
          "type": "address"
        },
        {
          "internalType": "address",
          "name": "to",
          "type": "address"
        },
        {
          "internalType": "uint256",
          "name": "tokenId",
          "type": "uint256"
        },
        {
          "internalType": "bytes",
          "name": "data",
          "type": "bytes"
        }
      ],
      "name": "safeTransferFrom",
      "outputs": [],
      "stateMutability": "nonpayable",
      "type": "function"
    },
    {
      "inputs": [
        {
          "internalType": "address",
          "name": "operator",
          "type": "address"
        },
        {
          "internalType": "bool",
          "name": "approved",
          "type": "bool"
        }
      ],
      "name": "setApprovalForAll",
      "outputs": [],
      "stateMutability": "nonpayable",
      "type": "function"
    },
    {
      "inputs": [],
      "name": "supply",
      "outputs": [
        {
          "internalType": "uint256",
          "name": "",
          "type": "uint256"
        }
      ],
      "stateMutability": "view",
      "type": "function"
    },
    {
      "inputs": [
        {
          "internalType": "bytes4",
          "name": "interfaceId",
          "type": "bytes4"
        }
      ],
      "name": "supportsInterface",
      "outputs": [
        {
          "internalType": "bool",
          "name": "",
          "type": "bool"
        }
      ],
      "stateMutability": "view",
      "type": "function"
    },
    {
      "inputs": [],
      "name": "symbol",
      "outputs": [
        {
          "internalType": "string",
          "name": "",
          "type": "string"
        }
      ],
      "stateMutability": "view",
      "type": "function"
    },
    {
      "inputs": [
        {
          "internalType": "uint256",
          "name": "index",
          "type": "uint256"
        }
      ],
      "name": "tokenByIndex",
      "outputs": [
        {
          "internalType": "uint256",
          "name": "",
          "type": "uint256"
        }
      ],
      "stateMutability": "view",
      "type": "function"
    },
    {
      "inputs": [
        {
          "internalType": "address",
          "name": "owner",
          "type": "address"
        },
        {
          "internalType": "uint256",
          "name": "index",
          "type": "uint256"
        }
      ],
      "name": "tokenOfOwnerByIndex",
      "outputs": [
        {
          "internalType": "uint256",
          "name": "",
          "type": "uint256"
        }
      ],
      "stateMutability": "view",
      "type": "function"
    },
    {
      "inputs": [
        {
          "internalType": "uint256",
          "name": "id",
          "type": "uint256"
        }
      ],
      "name": "tokenURI",
      "outputs": [
        {
          "internalType": "string",
          "name": "",
          "type": "string"
        }
      ],
      "stateMutability": "view",
      "type": "function"
    },
    {
      "inputs": [],
      "name": "totalSupply",
      "outputs": [
        {
          "internalType": "uint256",
          "name": "",
          "type": "uint256"
        }
      ],
      "stateMutability": "view",
      "type": "function"
    },
    {
      "inputs": [
        {
          "internalType": "address",
          "name": "from",
          "type": "address"
        },
        {
          "internalType": "address",
          "name": "to",
          "type": "address"
        },
        {
          "internalType": "uint256",
          "name": "tokenId",
          "type": "uint256"
        }
      ],
      "name": "transferFrom",
      "outputs": [],
      "stateMutability": "nonpayable",
      "type": "function"
    },
    {
      "inputs": [
        {
          "internalType": "address",
          "name": "newOwner",
          "type": "address"
        }
      ],
      "name": "transferOwnership",
      "outputs": [],
      "stateMutability": "nonpayable",
      "type": "function"
    },
    {
      "inputs": [],
      "name": "withdrawFunds",
      "outputs": [],
      "stateMutability": "nonpayable",
      "type": "function"
    }
  ],
  "bytecode": "0x60806040526000600b5573ce420ca2a9686512ee4e01976e1fbeca2b5c4e99600c60006101000a81548173ffffffffffffffffffffffffffffffffffffffff021916908373ffffffffffffffffffffffffffffffffffffffff1602179055503480156200006b57600080fd5b506040518060400160405280600f81526020017f4e484c2050726564696374696f6e7300000000000000000000000000000000008152506040518060400160405280600481526020017f4e484c50000000000000000000000000000000000000000000000000000000008152508160009080519060200190620000f092919062000200565b5080600190805190602001906200010992919062000200565b5050506200012c620001206200013260201b60201c565b6200013a60201b60201c565b62000315565b600033905090565b6000600a60009054906101000a900473ffffffffffffffffffffffffffffffffffffffff16905081600a60006101000a81548173ffffffffffffffffffffffffffffffffffffffff021916908373ffffffffffffffffffffffffffffffffffffffff1602179055508173ffffffffffffffffffffffffffffffffffffffff168173ffffffffffffffffffffffffffffffffffffffff167f8be0079c531659141344cd1fd0a4f28419497f9722a3daafe3b4186f6b6457e060405160405180910390a35050565b8280546200020e90620002b0565b90600052602060002090601f0160209004810192826200023257600085556200027e565b82601f106200024d57805160ff19168380011785556200027e565b828001600101855582156200027e579182015b828111156200027d57825182559160200191906001019062000260565b5b5090506200028d919062000291565b5090565b5b80821115620002ac57600081600090555060010162000292565b5090565b60006002820490506001821680620002c957607f821691505b60208210811415620002e057620002df620002e6565b5b50919050565b7f4e487b7100000000000000000000000000000000000000000000000000000000600052602260045260246000fd5b613ec680620003256000396000f3fe60806040526004361061014a5760003560e01c80634f6ccce7116100b6578063a22cb4651161006f578063a22cb465146104aa578063b88d4fde146104d3578063c87b56dd146104fc578063d645ddf614610539578063e985e9c514610569578063f2fde38b146105a65761014a565b80634f6ccce7146103865780636352211e146103c357806370a0823114610400578063715018a61461043d5780638da5cb5b1461045457806395d89b411461047f5761014a565b806318160ddd1161010857806318160ddd1461028a57806323b872dd146102b557806324600fc3146102de5780632f745c59146102f557806338af3eed1461033257806342842e0e1461035d5761014a565b80624fbbb01461014f57806301ffc9a714610191578063047fc9aa146101ce57806306fdde03146101f9578063081812fc14610224578063095ea7b314610261575b600080fd5b34801561015b57600080fd5b5061017660048036038101906101719190612e13565b6105cf565b604051610188969594939291906135c5565b60405180910390f35b34801561019d57600080fd5b506101b860048036038101906101b39190612cbc565b6107c3565b6040516101c5919061330b565b60405180910390f35b3480156101da57600080fd5b506101e361083d565b6040516101f091906135aa565b60405180910390f35b34801561020557600080fd5b5061020e610843565b60405161021b9190613326565b60405180910390f35b34801561023057600080fd5b5061024b60048036038101906102469190612e13565b6108d5565b604051610258919061327b565b60405180910390f35b34801561026d57600080fd5b5061028860048036038101906102839190612c7c565b61091b565b005b34801561029657600080fd5b5061029f610a33565b6040516102ac91906135aa565b60405180910390f35b3480156102c157600080fd5b506102dc60048036038101906102d79190612b66565b610a40565b005b3480156102ea57600080fd5b506102f3610aa0565b005b34801561030157600080fd5b5061031c60048036038101906103179190612c7c565b610c07565b60405161032991906135aa565b60405180910390f35b34801561033e57600080fd5b50610347610cac565b604051610354919061327b565b60405180910390f35b34801561036957600080fd5b50610384600480360381019061037f9190612b66565b610cd2565b005b34801561039257600080fd5b506103ad60048036038101906103a89190612e13565b610cf2565b6040516103ba91906135aa565b60405180910390f35b3480156103cf57600080fd5b506103ea60048036038101906103e59190612e13565b610d63565b6040516103f7919061327b565b60405180910390f35b34801561040c57600080fd5b5061042760048036038101906104229190612af9565b610dea565b60405161043491906135aa565b60405180910390f35b34801561044957600080fd5b50610452610ea2565b005b34801561046057600080fd5b50610469610eb6565b604051610476919061327b565b60405180910390f35b34801561048b57600080fd5b50610494610ee0565b6040516104a19190613326565b60405180910390f35b3480156104b657600080fd5b506104d160048036038101906104cc9190612c3c565b610f72565b005b3480156104df57600080fd5b506104fa60048036038101906104f59190612bb9565b610f88565b005b34801561050857600080fd5b50610523600480360381019061051e9190612e13565b610fea565b6040516105309190613326565b60405180910390f35b610553600480360381019061054e9190612d16565b611364565b60405161056091906135aa565b60405180910390f35b34801561057557600080fd5b50610590600480360381019061058b9190612b26565b6115c0565b60405161059d919061330b565b60405180910390f35b3480156105b257600080fd5b506105cd60048036038101906105c89190612af9565b611654565b005b600d6020528060005260406000206000915090508060000154908060010160009054906101000a900473ffffffffffffffffffffffffffffffffffffffff169080600201805461061e90613856565b80601f016020809104026020016040519081016040528092919081815260200182805461064a90613856565b80156106975780601f1061066c57610100808354040283529160200191610697565b820191906000526020600020905b81548152906001019060200180831161067a57829003601f168201915b5050505050908060030154908060040180546106b290613856565b80601f01602080910402602001604051908101604052809291908181526020018280546106de90613856565b801561072b5780601f106107005761010080835404028352916020019161072b565b820191906000526020600020905b81548152906001019060200180831161070e57829003601f168201915b50505050509080600501805461074090613856565b80601f016020809104026020016040519081016040528092919081815260200182805461076c90613856565b80156107b95780601f1061078e576101008083540402835291602001916107b9565b820191906000526020600020905b81548152906001019060200180831161079c57829003601f168201915b5050505050905086565b60007f780e9d63000000000000000000000000000000000000000000000000000000007bffffffffffffffffffffffffffffffffffffffffffffffffffffffff1916827bffffffffffffffffffffffffffffffffffffffffffffffffffffffff191614806108365750610835826116d8565b5b9050919050565b600b5481565b60606000805461085290613856565b80601f016020809104026020016040519081016040528092919081815260200182805461087e90613856565b80156108cb5780601f106108a0576101008083540402835291602001916108cb565b820191906000526020600020905b8154815290600101906020018083116108ae57829003601f168201915b5050505050905090565b60006108e0826117ba565b6004600083815260200190815260200160002060009054906101000a900473ffffffffffffffffffffffffffffffffffffffff169050919050565b600061092682610d63565b90508073ffffffffffffffffffffffffffffffffffffffff168373ffffffffffffffffffffffffffffffffffffffff161415610997576040517f08c379a000000000000000000000000000000000000000000000000000000000815260040161098e90613528565b60405180910390fd5b8073ffffffffffffffffffffffffffffffffffffffff166109b6611805565b73ffffffffffffffffffffffffffffffffffffffff1614806109e557506109e4816109df611805565b6115c0565b5b610a24576040517f08c379a0000000000000000000000000000000000000000000000000000000008152600401610a1b90613548565b60405180910390fd5b610a2e838361180d565b505050565b6000600880549050905090565b610a51610a4b611805565b826118c6565b610a90576040517f08c379a0000000000000000000000000000000000000000000000000000000008152600401610a8790613348565b60405180910390fd5b610a9b83838361195b565b505050565b600c60009054906101000a900473ffffffffffffffffffffffffffffffffffffffff1673ffffffffffffffffffffffffffffffffffffffff163373ffffffffffffffffffffffffffffffffffffffff1614610b30576040517f08c379a0000000000000000000000000000000000000000000000000000000008152600401610b2790613468565b60405180910390fd5b60004790506000600c60009054906101000a900473ffffffffffffffffffffffffffffffffffffffff1673ffffffffffffffffffffffffffffffffffffffff1682604051610b7d90613266565b60006040518083038185875af1925050503d8060008114610bba576040519150601f19603f3d011682016040523d82523d6000602084013e610bbf565b606091505b5050905080610c03576040517f08c379a0000000000000000000000000000000000000000000000000000000008152600401610bfa90613408565b60405180910390fd5b5050565b6000610c1283610dea565b8210610c53576040517f08c379a0000000000000000000000000000000000000000000000000000000008152600401610c4a90613368565b60405180910390fd5b600660008473ffffffffffffffffffffffffffffffffffffffff1673ffffffffffffffffffffffffffffffffffffffff168152602001908152602001600020600083815260200190815260200160002054905092915050565b600c60009054906101000a900473ffffffffffffffffffffffffffffffffffffffff1681565b610ced83838360405180602001604052806000815250610f88565b505050565b6000610cfc610a33565b8210610d3d576040517f08c379a0000000000000000000000000000000000000000000000000000000008152600401610d3490613568565b60405180910390fd5b60088281548110610d5157610d50613946565b5b90600052602060002001549050919050565b600080610d6f83611c51565b9050600073ffffffffffffffffffffffffffffffffffffffff168173ffffffffffffffffffffffffffffffffffffffff161415610de1576040517f08c379a0000000000000000000000000000000000000000000000000000000008152600401610dd890613508565b60405180910390fd5b80915050919050565b60008073ffffffffffffffffffffffffffffffffffffffff168273ffffffffffffffffffffffffffffffffffffffff161415610e5b576040517f08c379a0000000000000000000000000000000000000000000000000000000008152600401610e52906134a8565b60405180910390fd5b600360008373ffffffffffffffffffffffffffffffffffffffff1673ffffffffffffffffffffffffffffffffffffffff168152602001908152602001600020549050919050565b610eaa611c8e565b610eb46000611d0c565b565b6000600a60009054906101000a900473ffffffffffffffffffffffffffffffffffffffff16905090565b606060018054610eef90613856565b80601f0160208091040260200160405190810160405280929190818152602001828054610f1b90613856565b8015610f685780601f10610f3d57610100808354040283529160200191610f68565b820191906000526020600020905b815481529060010190602001808311610f4b57829003601f168201915b5050505050905090565b610f84610f7d611805565b8383611dd2565b5050565b610f99610f93611805565b836118c6565b610fd8576040517f08c379a0000000000000000000000000000000000000000000000000000000008152600401610fcf90613348565b60405180910390fd5b610fe484848484611f3f565b50505050565b6060610ff582611f9b565b611034576040517f08c379a000000000000000000000000000000000000000000000000000000000815260040161102b90613488565b60405180910390fd5b6000600d60008481526020019081526020016000206040518060c0016040529081600082015481526020016001820160009054906101000a900473ffffffffffffffffffffffffffffffffffffffff1673ffffffffffffffffffffffffffffffffffffffff1673ffffffffffffffffffffffffffffffffffffffff1681526020016002820180546110c490613856565b80601f01602080910402602001604051908101604052809291908181526020018280546110f090613856565b801561113d5780601f106111125761010080835404028352916020019161113d565b820191906000526020600020905b81548152906001019060200180831161112057829003601f168201915b505050505081526020016003820154815260200160048201805461116090613856565b80601f016020809104026020016040519081016040528092919081815260200182805461118c90613856565b80156111d95780601f106111ae576101008083540402835291602001916111d9565b820191906000526020600020905b8154815290600101906020018083116111bc57829003601f168201915b505050505081526020016005820180546111f290613856565b80601f016020809104026020016040519081016040528092919081815260200182805461121e90613856565b801561126b5780601f106112405761010080835404028352916020019161126b565b820191906000526020600020905b81548152906001019060200180831161124e57829003601f168201915b505050505081525050905073__$a5eeae6781d1c67c338561f8fa8e1acf09$__63407f462f6040518060c0016040528084600001518152602001846020015173ffffffffffffffffffffffffffffffffffffffff1681526020018460400151815260200184606001518152602001846080015181526020018460a001518152506040518263ffffffff1660e01b81526004016113079190613588565b60006040518083038186803b15801561131f57600080fd5b505af4158015611333573d6000803e3d6000fd5b505050506040513d6000823e3d601f19601f8201168201806040525081019061135c9190612dca565b915050919050565b6000806001611371610a33565b61137b9190613716565b905060006040518060c001604052808381526020013373ffffffffffffffffffffffffffffffffffffffff1681526020018a8a8080601f016020809104026020016040519081016040528093929190818152602001838380828437600081840152601f19601f82011690508083019250505050505050815260200142815260200188888080601f016020809104026020016040519081016040528093929190818152602001838380828437600081840152601f19601f82011690508083019250505050505050815260200186868080601f016020809104026020016040519081016040528093929190818152602001838380828437600081840152601f19601f82011690508083019250505050505050815250905080600d60008481526020019081526020016000206000820151816000015560208201518160010160006101000a81548173ffffffffffffffffffffffffffffffffffffffff021916908373ffffffffffffffffffffffffffffffffffffffff16021790555060408201518160020190805190602001906115119291906128b7565b506060820151816003015560808201518160040190805190602001906115389291906128b7565b5060a08201518160050190805190602001906115559291906128b7565b509050506115633383611fdc565b6001600b546115729190613716565b600b819055507f275a11e033325e9b28a23131fcc7e243a49bb38beb686051976dd8c8899d9a3c33836040516115a99291906132e2565b60405180910390a181925050509695505050505050565b6000600560008473ffffffffffffffffffffffffffffffffffffffff1673ffffffffffffffffffffffffffffffffffffffff16815260200190815260200160002060008373ffffffffffffffffffffffffffffffffffffffff1673ffffffffffffffffffffffffffffffffffffffff16815260200190815260200160002060009054906101000a900460ff16905092915050565b61165c611c8e565b600073ffffffffffffffffffffffffffffffffffffffff168173ffffffffffffffffffffffffffffffffffffffff1614156116cc576040517f08c379a00000000000000000000000000000000000000000000000000000000081526004016116c3906133a8565b60405180910390fd5b6116d581611d0c565b50565b60007f80ac58cd000000000000000000000000000000000000000000000000000000007bffffffffffffffffffffffffffffffffffffffffffffffffffffffff1916827bffffffffffffffffffffffffffffffffffffffffffffffffffffffff191614806117a357507f5b5e139f000000000000000000000000000000000000000000000000000000007bffffffffffffffffffffffffffffffffffffffffffffffffffffffff1916827bffffffffffffffffffffffffffffffffffffffffffffffffffffffff1916145b806117b357506117b282611ffa565b5b9050919050565b6117c381611f9b565b611802576040517f08c379a00000000000000000000000000000000000000000000000000000000081526004016117f990613508565b60405180910390fd5b50565b600033905090565b816004600083815260200190815260200160002060006101000a81548173ffffffffffffffffffffffffffffffffffffffff021916908373ffffffffffffffffffffffffffffffffffffffff160217905550808273ffffffffffffffffffffffffffffffffffffffff1661188083610d63565b73ffffffffffffffffffffffffffffffffffffffff167f8c5be1e5ebec7d5bd14f71427d1e84f3dd0314c0f7b2291e5b200ac8c7c3b92560405160405180910390a45050565b6000806118d283610d63565b90508073ffffffffffffffffffffffffffffffffffffffff168473ffffffffffffffffffffffffffffffffffffffff161480611914575061191381856115c0565b5b8061195257508373ffffffffffffffffffffffffffffffffffffffff1661193a846108d5565b73ffffffffffffffffffffffffffffffffffffffff16145b91505092915050565b8273ffffffffffffffffffffffffffffffffffffffff1661197b82610d63565b73ffffffffffffffffffffffffffffffffffffffff16146119d1576040517f08c379a00000000000000000000000000000000000000000000000000000000081526004016119c8906133c8565b60405180910390fd5b600073ffffffffffffffffffffffffffffffffffffffff168273ffffffffffffffffffffffffffffffffffffffff161415611a41576040517f08c379a0000000000000000000000000000000000000000000000000000000008152600401611a3890613428565b60405180910390fd5b611a4c838383612064565b8273ffffffffffffffffffffffffffffffffffffffff16611a6c82610d63565b73ffffffffffffffffffffffffffffffffffffffff1614611ac2576040517f08c379a0000000000000000000000000000000000000000000000000000000008152600401611ab9906133c8565b60405180910390fd5b6004600082815260200190815260200160002060006101000a81549073ffffffffffffffffffffffffffffffffffffffff02191690556001600360008573ffffffffffffffffffffffffffffffffffffffff1673ffffffffffffffffffffffffffffffffffffffff168152602001908152602001600020600082825403925050819055506001600360008473ffffffffffffffffffffffffffffffffffffffff1673ffffffffffffffffffffffffffffffffffffffff16815260200190815260200160002060008282540192505081905550816002600083815260200190815260200160002060006101000a81548173ffffffffffffffffffffffffffffffffffffffff021916908373ffffffffffffffffffffffffffffffffffffffff160217905550808273ffffffffffffffffffffffffffffffffffffffff168473ffffffffffffffffffffffffffffffffffffffff167fddf252ad1be2c89b69c2b068fc378daa952ba7f163c4a11628f55a4df523b3ef60405160405180910390a4611c4c838383612178565b505050565b60006002600083815260200190815260200160002060009054906101000a900473ffffffffffffffffffffffffffffffffffffffff169050919050565b611c96611805565b73ffffffffffffffffffffffffffffffffffffffff16611cb4610eb6565b73ffffffffffffffffffffffffffffffffffffffff1614611d0a576040517f08c379a0000000000000000000000000000000000000000000000000000000008152600401611d01906134e8565b60405180910390fd5b565b6000600a60009054906101000a900473ffffffffffffffffffffffffffffffffffffffff16905081600a60006101000a81548173ffffffffffffffffffffffffffffffffffffffff021916908373ffffffffffffffffffffffffffffffffffffffff1602179055508173ffffffffffffffffffffffffffffffffffffffff168173ffffffffffffffffffffffffffffffffffffffff167f8be0079c531659141344cd1fd0a4f28419497f9722a3daafe3b4186f6b6457e060405160405180910390a35050565b8173ffffffffffffffffffffffffffffffffffffffff168373ffffffffffffffffffffffffffffffffffffffff161415611e41576040517f08c379a0000000000000000000000000000000000000000000000000000000008152600401611e3890613448565b60405180910390fd5b80600560008573ffffffffffffffffffffffffffffffffffffffff1673ffffffffffffffffffffffffffffffffffffffff16815260200190815260200160002060008473ffffffffffffffffffffffffffffffffffffffff1673ffffffffffffffffffffffffffffffffffffffff16815260200190815260200160002060006101000a81548160ff0219169083151502179055508173ffffffffffffffffffffffffffffffffffffffff168373ffffffffffffffffffffffffffffffffffffffff167f17307eab39ab6107e8899845ad3d59bd9653f200f220920489ca2b5937696c3183604051611f32919061330b565b60405180910390a3505050565b611f4a84848461195b565b611f568484848461217d565b611f95576040517f08c379a0000000000000000000000000000000000000000000000000000000008152600401611f8c90613388565b60405180910390fd5b50505050565b60008073ffffffffffffffffffffffffffffffffffffffff16611fbd83611c51565b73ffffffffffffffffffffffffffffffffffffffff1614159050919050565b611ff6828260405180602001604052806000815250612314565b5050565b60007f01ffc9a7000000000000000000000000000000000000000000000000000000007bffffffffffffffffffffffffffffffffffffffffffffffffffffffff1916827bffffffffffffffffffffffffffffffffffffffffffffffffffffffff1916149050919050565b61206f83838361236f565b600073ffffffffffffffffffffffffffffffffffffffff168373ffffffffffffffffffffffffffffffffffffffff1614156120b2576120ad81612374565b6120f1565b8173ffffffffffffffffffffffffffffffffffffffff168373ffffffffffffffffffffffffffffffffffffffff16146120f0576120ef83826123bd565b5b5b600073ffffffffffffffffffffffffffffffffffffffff168273ffffffffffffffffffffffffffffffffffffffff1614156121345761212f8161252a565b612173565b8273ffffffffffffffffffffffffffffffffffffffff168273ffffffffffffffffffffffffffffffffffffffff16146121725761217182826125fb565b5b5b505050565b505050565b600061219e8473ffffffffffffffffffffffffffffffffffffffff1661267a565b15612307578373ffffffffffffffffffffffffffffffffffffffff1663150b7a026121c7611805565b8786866040518563ffffffff1660e01b81526004016121e99493929190613296565b602060405180830381600087803b15801561220357600080fd5b505af192505050801561223457506040513d601f19601f820116820180604052508101906122319190612ce9565b60015b6122b7573d8060008114612264576040519150601f19603f3d011682016040523d82523d6000602084013e612269565b606091505b506000815114156122af576040517f08c379a00000000000000000000000000000000000000000000000000000000081526004016122a690613388565b60405180910390fd5b805181602001fd5b63150b7a0260e01b7bffffffffffffffffffffffffffffffffffffffffffffffffffffffff1916817bffffffffffffffffffffffffffffffffffffffffffffffffffffffff19161491505061230c565b600190505b949350505050565b61231e838361269d565b61232b600084848461217d565b61236a576040517f08c379a000000000000000000000000000000000000000000000000000000000815260040161236190613388565b60405180910390fd5b505050565b505050565b6008805490506009600083815260200190815260200160002081905550600881908060018154018082558091505060019003906000526020600020016000909190919091505550565b600060016123ca84610dea565b6123d4919061376c565b90506000600760008481526020019081526020016000205490508181146124b9576000600660008673ffffffffffffffffffffffffffffffffffffffff1673ffffffffffffffffffffffffffffffffffffffff168152602001908152602001600020600084815260200190815260200160002054905080600660008773ffffffffffffffffffffffffffffffffffffffff1673ffffffffffffffffffffffffffffffffffffffff168152602001908152602001600020600084815260200190815260200160002081905550816007600083815260200190815260200160002081905550505b6007600084815260200190815260200160002060009055600660008573ffffffffffffffffffffffffffffffffffffffff1673ffffffffffffffffffffffffffffffffffffffff16815260200190815260200160002060008381526020019081526020016000206000905550505050565b6000600160088054905061253e919061376c565b905060006009600084815260200190815260200160002054905060006008838154811061256e5761256d613946565b5b9060005260206000200154905080600883815481106125905761258f613946565b5b9060005260206000200181905550816009600083815260200190815260200160002081905550600960008581526020019081526020016000206000905560088054806125df576125de613917565b5b6001900381819060005260206000200160009055905550505050565b600061260683610dea565b905081600660008573ffffffffffffffffffffffffffffffffffffffff1673ffffffffffffffffffffffffffffffffffffffff168152602001908152602001600020600083815260200190815260200160002081905550806007600084815260200190815260200160002081905550505050565b6000808273ffffffffffffffffffffffffffffffffffffffff163b119050919050565b600073ffffffffffffffffffffffffffffffffffffffff168273ffffffffffffffffffffffffffffffffffffffff16141561270d576040517f08c379a0000000000000000000000000000000000000000000000000000000008152600401612704906134c8565b60405180910390fd5b61271681611f9b565b15612756576040517f08c379a000000000000000000000000000000000000000000000000000000000815260040161274d906133e8565b60405180910390fd5b61276260008383612064565b61276b81611f9b565b156127ab576040517f08c379a00000000000000000000000000000000000000000000000000000000081526004016127a2906133e8565b60405180910390fd5b6001600360008473ffffffffffffffffffffffffffffffffffffffff1673ffffffffffffffffffffffffffffffffffffffff16815260200190815260200160002060008282540192505081905550816002600083815260200190815260200160002060006101000a81548173ffffffffffffffffffffffffffffffffffffffff021916908373ffffffffffffffffffffffffffffffffffffffff160217905550808273ffffffffffffffffffffffffffffffffffffffff16600073ffffffffffffffffffffffffffffffffffffffff167fddf252ad1be2c89b69c2b068fc378daa952ba7f163c4a11628f55a4df523b3ef60405160405180910390a46128b360008383612178565b5050565b8280546128c390613856565b90600052602060002090601f0160209004810192826128e5576000855561292c565b82601f106128fe57805160ff191683800117855561292c565b8280016001018555821561292c579182015b8281111561292b578251825591602001919060010190612910565b5b509050612939919061293d565b5090565b5b8082111561295657600081600090555060010161293e565b5090565b600061296d61296884613660565b61363b565b905082815260208101848484011115612989576129886139b3565b5b612994848285613814565b509392505050565b60006129af6129aa84613691565b61363b565b9050828152602081018484840111156129cb576129ca6139b3565b5b6129d6848285613823565b509392505050565b6000813590506129ed81613e34565b92915050565b600081359050612a0281613e4b565b92915050565b600081359050612a1781613e62565b92915050565b600081519050612a2c81613e62565b92915050565b600082601f830112612a4757612a466139a9565b5b8135612a5784826020860161295a565b91505092915050565b60008083601f840112612a7657612a756139a9565b5b8235905067ffffffffffffffff811115612a9357612a926139a4565b5b602083019150836001820283011115612aaf57612aae6139ae565b5b9250929050565b600082601f830112612acb57612aca6139a9565b5b8151612adb84826020860161299c565b91505092915050565b600081359050612af381613e79565b92915050565b600060208284031215612b0f57612b0e6139bd565b5b6000612b1d848285016129de565b91505092915050565b60008060408385031215612b3d57612b3c6139bd565b5b6000612b4b858286016129de565b9250506020612b5c858286016129de565b9150509250929050565b600080600060608486031215612b7f57612b7e6139bd565b5b6000612b8d868287016129de565b9350506020612b9e868287016129de565b9250506040612baf86828701612ae4565b9150509250925092565b60008060008060808587031215612bd357612bd26139bd565b5b6000612be1878288016129de565b9450506020612bf2878288016129de565b9350506040612c0387828801612ae4565b925050606085013567ffffffffffffffff811115612c2457612c236139b8565b5b612c3087828801612a32565b91505092959194509250565b60008060408385031215612c5357612c526139bd565b5b6000612c61858286016129de565b9250506020612c72858286016129f3565b9150509250929050565b60008060408385031215612c9357612c926139bd565b5b6000612ca1858286016129de565b9250506020612cb285828601612ae4565b9150509250929050565b600060208284031215612cd257612cd16139bd565b5b6000612ce084828501612a08565b91505092915050565b600060208284031215612cff57612cfe6139bd565b5b6000612d0d84828501612a1d565b91505092915050565b60008060008060008060608789031215612d3357612d326139bd565b5b600087013567ffffffffffffffff811115612d5157612d506139b8565b5b612d5d89828a01612a60565b9650965050602087013567ffffffffffffffff811115612d8057612d7f6139b8565b5b612d8c89828a01612a60565b9450945050604087013567ffffffffffffffff811115612daf57612dae6139b8565b5b612dbb89828a01612a60565b92509250509295509295509295565b600060208284031215612de057612ddf6139bd565b5b600082015167ffffffffffffffff811115612dfe57612dfd6139b8565b5b612e0a84828501612ab6565b91505092915050565b600060208284031215612e2957612e286139bd565b5b6000612e3784828501612ae4565b91505092915050565b612e49816137a0565b82525050565b612e58816137a0565b82525050565b612e67816137b2565b82525050565b6000612e78826136c2565b612e8281856136d8565b9350612e92818560208601613823565b612e9b816139c2565b840191505092915050565b6000612eb1826136cd565b612ebb81856136f4565b9350612ecb818560208601613823565b612ed4816139c2565b840191505092915050565b6000612eea826136cd565b612ef48185613705565b9350612f04818560208601613823565b612f0d816139c2565b840191505092915050565b6000612f25602d836136f4565b9150612f30826139d3565b604082019050919050565b6000612f48602b836136f4565b9150612f5382613a22565b604082019050919050565b6000612f6b6032836136f4565b9150612f7682613a71565b604082019050919050565b6000612f8e6026836136f4565b9150612f9982613ac0565b604082019050919050565b6000612fb16025836136f4565b9150612fbc82613b0f565b604082019050919050565b6000612fd4601c836136f4565b9150612fdf82613b5e565b602082019050919050565b6000612ff76006836136f4565b915061300282613b87565b602082019050919050565b600061301a6024836136f4565b915061302582613bb0565b604082019050919050565b600061303d6019836136f4565b915061304882613bff565b602082019050919050565b60006130606010836136f4565b915061306b82613c28565b602082019050919050565b60006130836009836136f4565b915061308e82613c51565b602082019050919050565b60006130a66029836136f4565b91506130b182613c7a565b604082019050919050565b60006130c96020836136f4565b91506130d482613cc9565b602082019050919050565b60006130ec6020836136f4565b91506130f782613cf2565b602082019050919050565b600061310f6018836136f4565b915061311a82613d1b565b602082019050919050565b60006131326021836136f4565b915061313d82613d44565b604082019050919050565b60006131556000836136e9565b915061316082613d93565b600082019050919050565b6000613178603d836136f4565b915061318382613d96565b604082019050919050565b600061319b602c836136f4565b91506131a682613de5565b604082019050919050565b600060c0830160008301516131c96000860182613257565b5060208301516131dc6020860182612e4f565b50604083015184820360408601526131f48282612edf565b91505060608301516132096060860182613257565b50608083015184820360808601526132218282612edf565b91505060a083015184820360a086015261323b8282612edf565b9150508091505092915050565b6132518161380a565b82525050565b6132608161380a565b82525050565b600061327182613148565b9150819050919050565b60006020820190506132906000830184612e40565b92915050565b60006080820190506132ab6000830187612e40565b6132b86020830186612e40565b6132c56040830185613248565b81810360608301526132d78184612e6d565b905095945050505050565b60006040820190506132f76000830185612e40565b6133046020830184613248565b9392505050565b60006020820190506133206000830184612e5e565b92915050565b600060208201905081810360008301526133408184612ea6565b905092915050565b6000602082019050818103600083015261336181612f18565b9050919050565b6000602082019050818103600083015261338181612f3b565b9050919050565b600060208201905081810360008301526133a181612f5e565b9050919050565b600060208201905081810360008301526133c181612f81565b9050919050565b600060208201905081810360008301526133e181612fa4565b9050919050565b6000602082019050818103600083015261340181612fc7565b9050919050565b6000602082019050818103600083015261342181612fea565b9050919050565b600060208201905081810360008301526134418161300d565b9050919050565b6000602082019050818103600083015261346181613030565b9050919050565b6000602082019050818103600083015261348181613053565b9050919050565b600060208201905081810360008301526134a181613076565b9050919050565b600060208201905081810360008301526134c181613099565b9050919050565b600060208201905081810360008301526134e1816130bc565b9050919050565b60006020820190508181036000830152613501816130df565b9050919050565b6000602082019050818103600083015261352181613102565b9050919050565b6000602082019050818103600083015261354181613125565b9050919050565b600060208201905081810360008301526135618161316b565b9050919050565b600060208201905081810360008301526135818161318e565b9050919050565b600060208201905081810360008301526135a281846131b1565b905092915050565b60006020820190506135bf6000830184613248565b92915050565b600060c0820190506135da6000830189613248565b6135e76020830188612e40565b81810360408301526135f98187612ea6565b90506136086060830186613248565b818103608083015261361a8185612ea6565b905081810360a083015261362e8184612ea6565b9050979650505050505050565b6000613645613656565b90506136518282613888565b919050565b6000604051905090565b600067ffffffffffffffff82111561367b5761367a613975565b5b613684826139c2565b9050602081019050919050565b600067ffffffffffffffff8211156136ac576136ab613975565b5b6136b5826139c2565b9050602081019050919050565b600081519050919050565b600081519050919050565b600082825260208201905092915050565b600081905092915050565b600082825260208201905092915050565b600082825260208201905092915050565b60006137218261380a565b915061372c8361380a565b9250827fffffffffffffffffffffffffffffffffffffffffffffffffffffffffffffffff03821115613761576137606138b9565b5b828201905092915050565b60006137778261380a565b91506137828361380a565b925082821015613795576137946138b9565b5b828203905092915050565b60006137ab826137ea565b9050919050565b60008115159050919050565b60007fffffffff0000000000000000000000000000000000000000000000000000000082169050919050565b600073ffffffffffffffffffffffffffffffffffffffff82169050919050565b6000819050919050565b82818337600083830152505050565b60005b83811015613841578082015181840152602081019050613826565b83811115613850576000848401525b50505050565b6000600282049050600182168061386e57607f821691505b60208210811415613882576138816138e8565b5b50919050565b613891826139c2565b810181811067ffffffffffffffff821117156138b0576138af613975565b5b80604052505050565b7f4e487b7100000000000000000000000000000000000000000000000000000000600052601160045260246000fd5b7f4e487b7100000000000000000000000000000000000000000000000000000000600052602260045260246000fd5b7f4e487b7100000000000000000000000000000000000000000000000000000000600052603160045260246000fd5b7f4e487b7100000000000000000000000000000000000000000000000000000000600052603260045260246000fd5b7f4e487b7100000000000000000000000000000000000000000000000000000000600052604160045260246000fd5b600080fd5b600080fd5b600080fd5b600080fd5b600080fd5b600080fd5b6000601f19601f8301169050919050565b7f4552433732313a2063616c6c6572206973206e6f7420746f6b656e206f776e6560008201527f72206f7220617070726f76656400000000000000000000000000000000000000602082015250565b7f455243373231456e756d657261626c653a206f776e657220696e646578206f7560008201527f74206f6620626f756e6473000000000000000000000000000000000000000000602082015250565b7f4552433732313a207472616e7366657220746f206e6f6e20455243373231526560008201527f63656976657220696d706c656d656e7465720000000000000000000000000000602082015250565b7f4f776e61626c653a206e6577206f776e657220697320746865207a65726f206160008201527f6464726573730000000000000000000000000000000000000000000000000000602082015250565b7f4552433732313a207472616e736665722066726f6d20696e636f72726563742060008201527f6f776e6572000000000000000000000000000000000000000000000000000000602082015250565b7f4552433732313a20746f6b656e20616c7265616479206d696e74656400000000600082015250565b7f4661696c65640000000000000000000000000000000000000000000000000000600082015250565b7f4552433732313a207472616e7366657220746f20746865207a65726f2061646460008201527f7265737300000000000000000000000000000000000000000000000000000000602082015250565b7f4552433732313a20617070726f766520746f2063616c6c657200000000000000600082015250565b7f6f6e6c792062656e656669636961727900000000000000000000000000000000600082015250565b7f6e6f742065786973740000000000000000000000000000000000000000000000600082015250565b7f4552433732313a2061646472657373207a65726f206973206e6f74206120766160008201527f6c6964206f776e65720000000000000000000000000000000000000000000000602082015250565b7f4552433732313a206d696e7420746f20746865207a65726f2061646472657373600082015250565b7f4f776e61626c653a2063616c6c6572206973206e6f7420746865206f776e6572600082015250565b7f4552433732313a20696e76616c696420746f6b656e2049440000000000000000600082015250565b7f4552433732313a20617070726f76616c20746f2063757272656e74206f776e6560008201527f7200000000000000000000000000000000000000000000000000000000000000602082015250565b50565b7f4552433732313a20617070726f76652063616c6c6572206973206e6f7420746f60008201527f6b656e206f776e6572206f7220617070726f76656420666f7220616c6c000000602082015250565b7f455243373231456e756d657261626c653a20676c6f62616c20696e646578206f60008201527f7574206f6620626f756e64730000000000000000000000000000000000000000602082015250565b613e3d816137a0565b8114613e4857600080fd5b50565b613e54816137b2565b8114613e5f57600080fd5b50565b613e6b816137be565b8114613e7657600080fd5b50565b613e828161380a565b8114613e8d57600080fd5b5056fea264697066735822122009a660e20e3a16da14da2a7e24a98bb594701c7c49ba6ffe5f192d39566584b464736f6c63430008070033",
  "linkReferences": {
    "contracts/NhlMetaDataGenerator.sol": {
      "NhlMetaDataGenerator": [
        {
          "length": 20,
          "start": 5533
        }
      ]
    }
  },
  "deployedLinkReferences": {
    "contracts/NhlMetaDataGenerator.sol": {
      "NhlMetaDataGenerator": [
        {
          "length": 20,
          "start": 4728
        }
      ]
    }
  }
}